{
  "contractName": "Election",
  "abi": [
    {
      "inputs": [],
      "stateMutability": "nonpayable",
      "type": "constructor"
    },
    {
      "inputs": [
        {
          "internalType": "uint256",
          "name": "",
          "type": "uint256"
        }
      ],
      "name": "candidates",
      "outputs": [
        {
          "internalType": "uint256",
          "name": "id",
          "type": "uint256"
        },
        {
          "internalType": "string",
          "name": "name",
          "type": "string"
        },
        {
          "internalType": "string",
          "name": "party",
          "type": "string"
        },
        {
          "internalType": "string",
          "name": "citizenshipNo",
          "type": "string"
        },
        {
          "internalType": "string",
          "name": "dob",
          "type": "string"
        },
        {
          "internalType": "string",
          "name": "img",
          "type": "string"
        },
        {
          "internalType": "string",
          "name": "email",
          "type": "string"
        },
        {
          "internalType": "uint256",
          "name": "votecount",
          "type": "uint256"
        }
      ],
      "stateMutability": "view",
      "type": "function",
      "constant": true
    },
    {
      "inputs": [],
      "name": "candidatesCount",
      "outputs": [
        {
          "internalType": "uint256",
          "name": "",
          "type": "uint256"
        }
      ],
      "stateMutability": "view",
      "type": "function",
      "constant": true
    },
    {
      "inputs": [],
      "name": "temp",
      "outputs": [
        {
          "internalType": "uint256",
          "name": "",
          "type": "uint256"
        }
      ],
      "stateMutability": "view",
      "type": "function",
      "constant": true
    },
    {
      "inputs": [
        {
          "internalType": "address",
          "name": "",
          "type": "address"
        }
      ],
      "name": "votedornot",
      "outputs": [
        {
          "internalType": "bool",
          "name": "",
          "type": "bool"
        }
      ],
      "stateMutability": "view",
      "type": "function",
      "constant": true
    },
    {
      "inputs": [
        {
          "internalType": "address",
          "name": "",
          "type": "address"
        }
      ],
      "name": "voters",
      "outputs": [
        {
          "internalType": "string",
          "name": "userHash",
          "type": "string"
        },
        {
          "internalType": "bool",
          "name": "registered",
          "type": "bool"
        },
        {
          "internalType": "string",
          "name": "voteHash",
          "type": "string"
        }
      ],
      "stateMutability": "view",
      "type": "function",
      "constant": true
    },
    {
      "inputs": [
        {
          "internalType": "string",
          "name": "name",
          "type": "string"
        },
        {
          "internalType": "string",
          "name": "party",
          "type": "string"
        },
        {
          "internalType": "string",
          "name": "citizenshipNo",
          "type": "string"
        },
        {
          "internalType": "string",
          "name": "dob",
          "type": "string"
        },
        {
          "internalType": "string",
          "name": "img",
          "type": "string"
        },
        {
          "internalType": "string",
          "name": "email",
          "type": "string"
        }
      ],
      "name": "addCandidates",
      "outputs": [],
      "stateMutability": "nonpayable",
      "type": "function"
    },
    {
      "inputs": [
        {
          "internalType": "uint256",
          "name": "id",
          "type": "uint256"
        }
      ],
      "name": "delCandidates",
      "outputs": [],
      "stateMutability": "nonpayable",
      "type": "function"
    },
    {
      "inputs": [
        {
          "internalType": "uint256",
          "name": "id",
          "type": "uint256"
        },
        {
          "internalType": "string",
          "name": "name",
          "type": "string"
        },
        {
          "internalType": "string",
          "name": "party",
          "type": "string"
        },
        {
          "internalType": "string",
          "name": "citizenshipNo",
          "type": "string"
        },
        {
          "internalType": "string",
          "name": "dob",
          "type": "string"
        },
        {
          "internalType": "string",
          "name": "email",
          "type": "string"
        }
      ],
      "name": "editCandidates",
      "outputs": [],
      "stateMutability": "nonpayable",
      "type": "function"
    },
    {
      "inputs": [
        {
          "internalType": "string",
          "name": "_dataToHash",
          "type": "string"
        }
      ],
      "name": "registerUser",
      "outputs": [],
      "stateMutability": "nonpayable",
      "type": "function"
    },
    {
      "inputs": [
        {
          "internalType": "address",
          "name": "_user",
          "type": "address"
        },
        {
          "internalType": "string",
          "name": "_dataToHash",
          "type": "string"
        }
      ],
      "name": "verifyUser",
      "outputs": [
        {
          "internalType": "bool",
          "name": "",
          "type": "bool"
        }
      ],
      "stateMutability": "view",
      "type": "function",
      "constant": true
    },
    {
      "inputs": [
        {
          "internalType": "uint256",
          "name": "_id",
          "type": "uint256"
        }
      ],
      "name": "vote",
      "outputs": [],
      "stateMutability": "nonpayable",
      "type": "function"
    },
    {
      "inputs": [
        {
          "internalType": "address",
          "name": "_voter",
          "type": "address"
        },
        {
          "internalType": "uint256",
          "name": "_candidateId",
          "type": "uint256"
        }
      ],
      "name": "verifyVote",
      "outputs": [
        {
          "internalType": "bool",
          "name": "",
          "type": "bool"
        }
      ],
      "stateMutability": "view",
      "type": "function",
      "constant": true
    }
  ],
  "bytecode": "0x60806040526040518060a00160405280602b60ff168152602001602360ff168152602001603060ff168152602001604660ff168152602001603260ff1681525060019060056200005192919062000968565b5060056006553480156200006457600080fd5b506200019d6040518060400160405280600681526020017f4b50204f6c6900000000000000000000000000000000000000000000000000008152506040518060400160405280600381526020017f43504e00000000000000000000000000000000000000000000000000000000008152506040518060400160405280600981526020017f30313035373034383700000000000000000000000000000000000000000000008152506040518060400160405280600a81526020017f32322f30322f313935320000000000000000000000000000000000000000000081525060405180608001604052806057815260200162002d5c605791396040518060400160405280601081526020017f6b706f6c6931406e6570616c2e636f6d000000000000000000000000000000008152506200068360201b60201c565b620002d56040518060400160405280601281526020017f53686572204261686164757220446575626100000000000000000000000000008152506040518060400160405280600381526020017f4e435000000000000000000000000000000000000000000000000000000000008152506040518060400160405280600981526020017f30313536373839393800000000000000000000000000000000000000000000008152506040518060400160405280600a81526020017f33302f30352f313935320000000000000000000000000000000000000000000081525060405180608001604052806059815260200162002cad605991396040518060400160405280601681526020017f736865726264726465756261406e6570616c2e636f6d000000000000000000008152506200068360201b60201c565b6200040d6040518060400160405280600b81526020017f476167616e2054686170610000000000000000000000000000000000000000008152506040518060400160405280600381526020017f4e435000000000000000000000000000000000000000000000000000000000008152506040518060400160405280600981526020017f30313536373837393500000000000000000000000000000000000000000000008152506040518060400160405280600a81526020017f33302f30352f313938320000000000000000000000000000000000000000000081525060405180608001604052806056815260200162002d06605691396040518060400160405280601481526020017f676167616e7468617061406e6570616c2e636f6d0000000000000000000000008152506200068360201b60201c565b620005456040518060400160405280601181526020017f5075737061204b616d616c20446168616c0000000000000000000000000000008152506040518060400160405280600381526020017f554d4c00000000000000000000000000000000000000000000000000000000008152506040518060400160405280600981526020017f30313536373639383500000000000000000000000000000000000000000000008152506040518060400160405280600a81526020017f33302f30352f313936320000000000000000000000000000000000000000000081525060405180608001604052806054815260200162002c59605491396040518060400160405280601581526020017f70757370616b646168616c406e6570616c2e636f6d00000000000000000000008152506200068360201b60201c565b6200067d6040518060400160405280600b81526020017f4b616d616c2054686170610000000000000000000000000000000000000000008152506040518060400160405280600381526020017f52505000000000000000000000000000000000000000000000000000000000008152506040518060400160405280600981526020017f30313536373738363700000000000000000000000000000000000000000000008152506040518060400160405280600a81526020017f33302f30352f313937320000000000000000000000000000000000000000000081525060405180608001604052806053815260200162002c06605391396040518060400160405280601481526020017f6b616d616c7468617061406e6570616c2e636f6d0000000000000000000000008152506200068360201b60201c565b62000bb8565b600080815480929190620006979062000b0c565b9190505550600060065411156200083d57600180600654620006ba919062000a62565b60058110620006f2577f4e487b7100000000000000000000000000000000000000000000000000000000600052603260045260246000fd5b01546007819055506040518061010001604052806000548152602001878152602001868152602001858152602001848152602001838152602001828152602001600754815250600860008054815260200190815260200160002060008201518160000155602082015181600101908051906020019062000774929190620009b2565b50604082015181600201908051906020019062000793929190620009b2565b506060820151816003019080519060200190620007b2929190620009b2565b506080820151816004019080519060200190620007d1929190620009b2565b5060a0820151816005019080519060200190620007f0929190620009b2565b5060c08201518160060190805190602001906200080f929190620009b2565b5060e0820151816007015590505060066000815480929190620008329062000aa7565b919050555062000960565b604051806101000160405280600054815260200187815260200186815260200185815260200184815260200183815260200182815260200160008152506008600080548152602001908152602001600020600082015181600001556020820151816001019080519060200190620008b6929190620009b2565b506040820151816002019080519060200190620008d5929190620009b2565b506060820151816003019080519060200190620008f4929190620009b2565b50608082015181600401908051906020019062000913929190620009b2565b5060a082015181600501908051906020019062000932929190620009b2565b5060c082015181600601908051906020019062000951929190620009b2565b5060e082015181600701559050505b505050505050565b82600581019282156200099f579160200282015b828111156200099e578251829060ff169055916020019190600101906200097c565b5b509050620009ae919062000a43565b5090565b828054620009c09062000ad6565b90600052602060002090601f016020900481019282620009e4576000855562000a30565b82601f10620009ff57805160ff191683800117855562000a30565b8280016001018555821562000a30579182015b8281111562000a2f57825182559160200191906001019062000a12565b5b50905062000a3f919062000a43565b5090565b5b8082111562000a5e57600081600090555060010162000a44565b5090565b600062000a6f8262000a9d565b915062000a7c8362000a9d565b92508282101562000a925762000a9162000b5a565b5b828203905092915050565b6000819050919050565b600062000ab48262000a9d565b9150600082141562000acb5762000aca62000b5a565b5b600182039050919050565b6000600282049050600182168062000aef57607f821691505b6020821081141562000b065762000b0562000b89565b5b50919050565b600062000b198262000a9d565b91507fffffffffffffffffffffffffffffffffffffffffffffffffffffffffffffffff82141562000b4f5762000b4e62000b5a565b5b600182019050919050565b7f4e487b7100000000000000000000000000000000000000000000000000000000600052601160045260246000fd5b7f4e487b7100000000000000000000000000000000000000000000000000000000600052602260045260246000fd5b61203e8062000bc86000396000f3fe608060405234801561001057600080fd5b50600436106100b45760003560e01c8063673402e511610071578063673402e5146101a6578063704f1b94146101c4578063742794d5146101e0578063a22ccb8414610210578063a3ec138d1461022c578063afa128371461025e576100b4565b80630121b93f146100b95780631bc57022146100d55780632d35a8a2146101055780633017b817146101235780633477ee2e1461013f578063641d7a7814610176575b600080fd5b6100d360048036038101906100ce9190611709565b61027a565b005b6100ef60048036038101906100ea91906114f6565b610514565b6040516100fc9190611af4565b60405180910390f35b61010d610534565b60405161011a9190611bd4565b60405180910390f35b61013d60048036038101906101389190611709565b61053a565b005b61015960048036038101906101549190611709565b610754565b60405161016d989796959493929190611bef565b60405180910390f35b610190600480360381019061018b919061151f565b610acc565b60405161019d9190611af4565b60405180910390f35b6101ae610b6b565b6040516101bb9190611bd4565b60405180910390f35b6101de60048036038101906101d991906115af565b610b71565b005b6101fa60048036038101906101f59190611573565b610d18565b6040516102079190611af4565b60405180910390f35b61022a600480360381019061022591906115f0565b610db9565b005b610246600480360381019061024191906114f6565b61107d565b60405161025593929190611b0f565b60405180910390f35b61027860048036038101906102739190611732565b6111c4565b005b600960003373ffffffffffffffffffffffffffffffffffffffff1673ffffffffffffffffffffffffffffffffffffffff16815260200190815260200160002060010160009054906101000a900460ff16610309576040517f08c379a000000000000000000000000000000000000000000000000000000000815260040161030090611b54565b60405180910390fd5b600a60003373ffffffffffffffffffffffffffffffffffffffff1673ffffffffffffffffffffffffffffffffffffffff16815260200190815260200160002060009054906101000a900460ff1615610396576040517f08c379a000000000000000000000000000000000000000000000000000000000815260040161038d90611bb4565b60405180910390fd5b60005481111580156103a85750600081115b6103e7576040517f08c379a00000000000000000000000000000000000000000000000000000000081526004016103de90611b94565b60405180910390fd5b600033826040516020016103fc929190611a7f565b604051602081830303815290604052805190602001209050806040516020016104259190611aab565b604051602081830303815290604052600960003373ffffffffffffffffffffffffffffffffffffffff1673ffffffffffffffffffffffffffffffffffffffff16815260200190815260200160002060020190805190602001906104899291906112f4565b506001600a60003373ffffffffffffffffffffffffffffffffffffffff1673ffffffffffffffffffffffffffffffffffffffff16815260200190815260200160002060006101000a81548160ff02191690831515021790555060016008600084815260200190815260200160002060070160008282546105099190611d34565b925050819055505050565b600a6020528060005260406000206000915054906101000a900460ff1681565b60005481565b600054811115801561054c5750600081115b61058b576040517f08c379a000000000000000000000000000000000000000000000000000000000815260040161058290611b94565b60405180910390fd5b5b6000548110156106b357600860006001836105a79190611d34565b8152602001908152602001600020600860008381526020019081526020016000206000820154816000015560018201816001019080546105e690611e7c565b6105f192919061137a565b50600282018160020190805461060690611e7c565b61061192919061137a565b50600382018160030190805461062690611e7c565b61063192919061137a565b50600482018160040190805461064690611e7c565b61065192919061137a565b50600582018160050190805461066690611e7c565b61067192919061137a565b50600682018160060190805461068690611e7c565b61069192919061137a565b50600782015481600701559050506001816106ac9190611d34565b905061058c565b60086000805481526020019081526020016000206000808201600090556001820160006106e09190611407565b6002820160006106f09190611407565b6003820160006107009190611407565b6004820160006107109190611407565b6005820160006107209190611407565b6006820160006107309190611407565b6007820160009055505060008081548092919061074c90611e52565b919050555050565b600860205280600052604060002060009150905080600001549080600101805461077d90611e7c565b80601f01602080910402602001604051908101604052809291908181526020018280546107a990611e7c565b80156107f65780601f106107cb576101008083540402835291602001916107f6565b820191906000526020600020905b8154815290600101906020018083116107d957829003601f168201915b50505050509080600201805461080b90611e7c565b80601f016020809104026020016040519081016040528092919081815260200182805461083790611e7c565b80156108845780601f1061085957610100808354040283529160200191610884565b820191906000526020600020905b81548152906001019060200180831161086757829003601f168201915b50505050509080600301805461089990611e7c565b80601f01602080910402602001604051908101604052809291908181526020018280546108c590611e7c565b80156109125780601f106108e757610100808354040283529160200191610912565b820191906000526020600020905b8154815290600101906020018083116108f557829003601f168201915b50505050509080600401805461092790611e7c565b80601f016020809104026020016040519081016040528092919081815260200182805461095390611e7c565b80156109a05780601f10610975576101008083540402835291602001916109a0565b820191906000526020600020905b81548152906001019060200180831161098357829003601f168201915b5050505050908060050180546109b590611e7c565b80601f01602080910402602001604051908101604052809291908181526020018280546109e190611e7c565b8015610a2e5780601f10610a0357610100808354040283529160200191610a2e565b820191906000526020600020905b815481529060010190602001808311610a1157829003601f168201915b505050505090806006018054610a4390611e7c565b80601f0160208091040260200160405190810160405280929190818152602001828054610a6f90611e7c565b8015610abc5780601f10610a9157610100808354040283529160200191610abc565b820191906000526020600020905b815481529060010190602001808311610a9f57829003601f168201915b5050505050908060070154905088565b60008082604051602001610ae09190611ac6565b60405160208183030381529060405280519060200120905080600960008673ffffffffffffffffffffffffffffffffffffffff1673ffffffffffffffffffffffffffffffffffffffff168152602001908152602001600020600001604051602001610b4b9190611add565b604051602081830303815290604052805190602001201491505092915050565b60075481565b600960003373ffffffffffffffffffffffffffffffffffffffff1673ffffffffffffffffffffffffffffffffffffffff16815260200190815260200160002060010160009054906101000a900460ff1615610c01576040517f08c379a0000000000000000000000000000000000000000000000000000000008152600401610bf890611b74565b60405180910390fd5b600081604051602001610c149190611ac6565b604051602081830303815290604052805190602001209050604051806060016040528082604051602001610c489190611aab565b604051602081830303815290604052815260200160011515815260200160405180602001604052806000815250815250600960003373ffffffffffffffffffffffffffffffffffffffff1673ffffffffffffffffffffffffffffffffffffffff1681526020019081526020016000206000820151816000019080519060200190610cd39291906112f4565b5060208201518160010160006101000a81548160ff0219169083151502179055506040820151816002019080519060200190610d109291906112f4565b509050505050565b6000808383604051602001610d2e929190611a7f565b60405160208183030381529060405280519060200120905080600960008673ffffffffffffffffffffffffffffffffffffffff1673ffffffffffffffffffffffffffffffffffffffff168152602001908152602001600020600201604051602001610d999190611add565b604051602081830303815290604052805190602001201491505092915050565b600080815480929190610dcb90611eae565b919050555060006006541115610f5e57600180600654610deb9190611d8a565b60058110610e22577f4e487b7100000000000000000000000000000000000000000000000000000000600052603260045260246000fd5b015460078190555060405180610100016040528060005481526020018781526020018681526020018581526020018481526020018381526020018281526020016007548152506008600080548152602001908152602001600020600082015181600001556020820151816001019080519060200190610ea29291906112f4565b506040820151816002019080519060200190610ebf9291906112f4565b506060820151816003019080519060200190610edc9291906112f4565b506080820151816004019080519060200190610ef99291906112f4565b5060a0820151816005019080519060200190610f169291906112f4565b5060c0820151816006019080519060200190610f339291906112f4565b5060e0820151816007015590505060066000815480929190610f5490611e52565b9190505550611075565b604051806101000160405280600054815260200187815260200186815260200185815260200184815260200183815260200182815260200160008152506008600080548152602001908152602001600020600082015181600001556020820151816001019080519060200190610fd59291906112f4565b506040820151816002019080519060200190610ff29291906112f4565b50606082015181600301908051906020019061100f9291906112f4565b50608082015181600401908051906020019061102c9291906112f4565b5060a08201518160050190805190602001906110499291906112f4565b5060c08201518160060190805190602001906110669291906112f4565b5060e082015181600701559050505b505050505050565b60096020528060005260406000206000915090508060000180546110a090611e7c565b80601f01602080910402602001604051908101604052809291908181526020018280546110cc90611e7c565b80156111195780601f106110ee57610100808354040283529160200191611119565b820191906000526020600020905b8154815290600101906020018083116110fc57829003601f168201915b5050505050908060010160009054906101000a900460ff169080600201805461114190611e7c565b80601f016020809104026020016040519081016040528092919081815260200182805461116d90611e7c565b80156111ba5780601f1061118f576101008083540402835291602001916111ba565b820191906000526020600020905b81548152906001019060200180831161119d57829003601f168201915b5050505050905083565b60005486111580156111d65750600086115b611215576040517f08c379a000000000000000000000000000000000000000000000000000000000815260040161120c90611b94565b60405180910390fd5b8460086000888152602001908152602001600020600101908051906020019061123f9291906112f4565b508360086000888152602001908152602001600020600201908051906020019061126a9291906112f4565b50826008600088815260200190815260200160002060030190805190602001906112959291906112f4565b50816008600088815260200190815260200160002060040190805190602001906112c09291906112f4565b50806008600088815260200190815260200160002060060190805190602001906112eb9291906112f4565b50505050505050565b82805461130090611e7c565b90600052602060002090601f0160209004810192826113225760008555611369565b82601f1061133b57805160ff1916838001178555611369565b82800160010185558215611369579182015b8281111561136857825182559160200191906001019061134d565b5b5090506113769190611447565b5090565b82805461138690611e7c565b90600052602060002090601f0160209004810192826113a857600085556113f6565b82601f106113b957805485556113f6565b828001600101855582156113f657600052602060002091601f016020900482015b828111156113f55782548255916001019190600101906113da565b5b5090506114039190611447565b5090565b50805461141390611e7c565b6000825580601f106114255750611444565b601f0160209004906000526020600020908101906114439190611447565b5b50565b5b80821115611460576000816000905550600101611448565b5090565b600061147761147284611cc8565b611c97565b90508281526020810184848401111561148f57600080fd5b61149a848285611e10565b509392505050565b6000813590506114b181611fda565b92915050565b600082601f8301126114c857600080fd5b81356114d8848260208601611464565b91505092915050565b6000813590506114f081611ff1565b92915050565b60006020828403121561150857600080fd5b6000611516848285016114a2565b91505092915050565b6000806040838503121561153257600080fd5b6000611540858286016114a2565b925050602083013567ffffffffffffffff81111561155d57600080fd5b611569858286016114b7565b9150509250929050565b6000806040838503121561158657600080fd5b6000611594858286016114a2565b92505060206115a5858286016114e1565b9150509250929050565b6000602082840312156115c157600080fd5b600082013567ffffffffffffffff8111156115db57600080fd5b6115e7848285016114b7565b91505092915050565b60008060008060008060c0878903121561160957600080fd5b600087013567ffffffffffffffff81111561162357600080fd5b61162f89828a016114b7565b965050602087013567ffffffffffffffff81111561164c57600080fd5b61165889828a016114b7565b955050604087013567ffffffffffffffff81111561167557600080fd5b61168189828a016114b7565b945050606087013567ffffffffffffffff81111561169e57600080fd5b6116aa89828a016114b7565b935050608087013567ffffffffffffffff8111156116c757600080fd5b6116d389828a016114b7565b92505060a087013567ffffffffffffffff8111156116f057600080fd5b6116fc89828a016114b7565b9150509295509295509295565b60006020828403121561171b57600080fd5b6000611729848285016114e1565b91505092915050565b60008060008060008060c0878903121561174b57600080fd5b600061175989828a016114e1565b965050602087013567ffffffffffffffff81111561177657600080fd5b61178289828a016114b7565b955050604087013567ffffffffffffffff81111561179f57600080fd5b6117ab89828a016114b7565b945050606087013567ffffffffffffffff8111156117c857600080fd5b6117d489828a016114b7565b935050608087013567ffffffffffffffff8111156117f157600080fd5b6117fd89828a016114b7565b92505060a087013567ffffffffffffffff81111561181a57600080fd5b61182689828a016114b7565b9150509295509295509295565b61184461183f82611dbe565b611ef7565b82525050565b61185381611dd0565b82525050565b61186a61186582611ddc565b611f09565b82525050565b600061187b82611d0d565b6118858185611d18565b9350611895818560208601611e1f565b61189e81611fbc565b840191505092915050565b60006118b482611d0d565b6118be8185611d29565b93506118ce818560208601611e1f565b80840191505092915050565b600081546118e781611e7c565b6118f18186611d29565b9450600182166000811461190c576001811461191d57611950565b60ff19831686528186019350611950565b61192685611cf8565b60005b8381101561194857815481890152600182019150602081019050611929565b838801955050505b50505092915050565b6000611966601383611d18565b91507f55736572206e6f742072656769737465726564000000000000000000000000006000830152602082019050919050565b60006119a6601783611d18565b91507f5573657220616c726561647920726567697374657265640000000000000000006000830152602082019050919050565b60006119e6601483611d18565b91507f496e76616c69642063616e6469646174652049440000000000000000000000006000830152602082019050919050565b6000611a26601683611d18565b91507f596f75206861766520616c726561647920766f746564000000000000000000006000830152602082019050919050565b611a6281611e06565b82525050565b611a79611a7482611e06565b611f25565b82525050565b6000611a8b8285611833565b601482019150611a9b8284611a68565b6020820191508190509392505050565b6000611ab78284611859565b60208201915081905092915050565b6000611ad282846118a9565b915081905092915050565b6000611ae982846118da565b915081905092915050565b6000602082019050611b09600083018461184a565b92915050565b60006060820190508181036000830152611b298186611870565b9050611b38602083018561184a565b8181036040830152611b4a8184611870565b9050949350505050565b60006020820190508181036000830152611b6d81611959565b9050919050565b60006020820190508181036000830152611b8d81611999565b9050919050565b60006020820190508181036000830152611bad816119d9565b9050919050565b60006020820190508181036000830152611bcd81611a19565b9050919050565b6000602082019050611be96000830184611a59565b92915050565b600061010082019050611c05600083018b611a59565b8181036020830152611c17818a611870565b90508181036040830152611c2b8189611870565b90508181036060830152611c3f8188611870565b90508181036080830152611c538187611870565b905081810360a0830152611c678186611870565b905081810360c0830152611c7b8185611870565b9050611c8a60e0830184611a59565b9998505050505050505050565b6000604051905081810181811067ffffffffffffffff82111715611cbe57611cbd611f8d565b5b8060405250919050565b600067ffffffffffffffff821115611ce357611ce2611f8d565b5b601f19601f8301169050602081019050919050565b60008190508160005260206000209050919050565b600081519050919050565b600082825260208201905092915050565b600081905092915050565b6000611d3f82611e06565b9150611d4a83611e06565b9250827fffffffffffffffffffffffffffffffffffffffffffffffffffffffffffffffff03821115611d7f57611d7e611f2f565b5b828201905092915050565b6000611d9582611e06565b9150611da083611e06565b925082821015611db357611db2611f2f565b5b828203905092915050565b6000611dc982611de6565b9050919050565b60008115159050919050565b6000819050919050565b600073ffffffffffffffffffffffffffffffffffffffff82169050919050565b6000819050919050565b82818337600083830152505050565b60005b83811015611e3d578082015181840152602081019050611e22565b83811115611e4c576000848401525b50505050565b6000611e5d82611e06565b91506000821415611e7157611e70611f2f565b5b600182039050919050565b60006002820490506001821680611e9457607f821691505b60208210811415611ea857611ea7611f5e565b5b50919050565b6000611eb982611e06565b91507fffffffffffffffffffffffffffffffffffffffffffffffffffffffffffffffff821415611eec57611eeb611f2f565b5b600182019050919050565b6000611f0282611f13565b9050919050565b6000819050919050565b6000611f1e82611fcd565b9050919050565b6000819050919050565b7f4e487b7100000000000000000000000000000000000000000000000000000000600052601160045260246000fd5b7f4e487b7100000000000000000000000000000000000000000000000000000000600052602260045260246000fd5b7f4e487b7100000000000000000000000000000000000000000000000000000000600052604160045260246000fd5b6000601f19601f8301169050919050565b60008160601b9050919050565b611fe381611dbe565b8114611fee57600080fd5b50565b611ffa81611e06565b811461200557600080fd5b5056fea2646970667358221220a2f2983bfc8ac208b764f5c8e45f519579370d315e1a82e8eb566bf4d53d8f8364736f6c6343000800003368747470733a2f2f7265732e636c6f7564696e6172792e636f6d2f64796e62727a657a732f696d6167652f75706c6f61642f76313634343232323937332f75706c6f6164732f6b745f6f74753874702e6a706768747470733a2f2f7265732e636c6f7564696e6172792e636f6d2f64796e62727a657a732f696d6167652f75706c6f61642f76313634343232323936352f75706c6f6164732f706b645f6e6d68336e6d2e6a706768747470733a2f2f7265732e636c6f7564696e6172792e636f6d2f64796e62727a657a732f696d6167652f75706c6f61642f76313634333839353830302f75706c6f6164732f5342444e43505f315f7a6b703679622e6a706768747470733a2f2f7265732e636c6f7564696e6172792e636f6d2f64796e62727a657a732f696d6167652f75706c6f61642f76313634333839353830392f75706c6f6164732f47544e43505f6672393935322e6a706768747470733a2f2f7265732e636c6f7564696e6172792e636f6d2f64796e62727a657a732f696d6167652f75706c6f61642f76313634333839363030302f75706c6f6164732f6b702d6f6c695f6433703161342e6a7067",
  "immutableReferences": {},
  "source": "// SPDX-License-Identifier: MIT\r\npragma solidity ^0.8.0; // Updated to a more recent version for security\r\n\r\ncontract Election {\r\n    // Struct for Candidate\r\n    struct Candidate {\r\n        uint256 id;\r\n        string name;\r\n        string party;\r\n        string citizenshipNo;\r\n        string dob;\r\n        string img;\r\n        string email;\r\n        uint256 votecount;\r\n    }\r\n\r\n    // Struct for Voter\r\n    struct Voter {\r\n        string userHash; // Keccak-256 hash of citizenship_no + email\r\n        bool registered;\r\n        string voteHash; // Keccak-256 hash of voter address + candidate ID\r\n    }\r\n\r\n    // Candidate count\r\n    uint256 public candidatesCount;\r\n\r\n    // Random vote count for demonstration\r\n    uint256[5] ranvote = [43, 35, 48, 70, 50];\r\n    uint256 i = 5;\r\n    uint256 public temp;\r\n\r\n    // Mappings\r\n    mapping(uint256 => Candidate) public candidates;\r\n    mapping(address => Voter) public voters; // Changed from votedornot to store userHash and voteHash\r\n    mapping(address => bool) public votedornot; // Keep for compatibility\r\n\r\n    // Constructor\r\n    constructor() {\r\n        addCandidates(\r\n            \"KP Oli\",\r\n            \"CPN\",\r\n            \"010570487\",\r\n            \"22/02/1952\",\r\n            \"https://res.cloudinary.com/dynbrzezs/image/upload/v1643896000/uploads/kp-oli_d3p1a4.jpg\",\r\n            \"kpoli1@nepal.com\"\r\n        );\r\n        addCandidates(\r\n            \"Sher Bahadur Deuba\",\r\n            \"NCP\",\r\n            \"015678998\",\r\n            \"30/05/1952\",\r\n            \"https://res.cloudinary.com/dynbrzezs/image/upload/v1643895800/uploads/SBDNCP_1_zkp6yb.jpg\",\r\n            \"sherbdrdeuba@nepal.com\"\r\n        );\r\n        addCandidates(\r\n            \"Gagan Thapa\",\r\n            \"NCP\",\r\n            \"015678795\",\r\n            \"30/05/1982\",\r\n            \"https://res.cloudinary.com/dynbrzezs/image/upload/v1643895809/uploads/GTNCP_fr9952.jpg\",\r\n            \"gaganthapa@nepal.com\"\r\n        );\r\n        addCandidates(\r\n            \"Puspa Kamal Dahal\",\r\n            \"UML\",\r\n            \"015676985\",\r\n            \"30/05/1962\",\r\n            \"https://res.cloudinary.com/dynbrzezs/image/upload/v1644222965/uploads/pkd_nmh3nm.jpg\",\r\n            \"puspakdahal@nepal.com\"\r\n        );\r\n        addCandidates(\r\n            \"Kamal Thapa\",\r\n            \"RPP\",\r\n            \"015677867\",\r\n            \"30/05/1972\",\r\n            \"https://res.cloudinary.com/dynbrzezs/image/upload/v1644222973/uploads/kt_otu8tp.jpg\",\r\n            \"kamalthapa@nepal.com\"\r\n        );\r\n    }\r\n\r\n    // Add Candidate\r\n    function addCandidates(\r\n        string memory name,\r\n        string memory party,\r\n        string memory citizenshipNo,\r\n        string memory dob,\r\n        string memory img,\r\n        string memory email\r\n    ) public {\r\n        candidatesCount++;\r\n        if (i > 0) {\r\n            temp = ranvote[i - 1];\r\n            candidates[candidatesCount] = Candidate(candidatesCount, name, party, citizenshipNo, dob, img, email, temp);\r\n            i--;\r\n        } else {\r\n            candidates[candidatesCount] = Candidate(candidatesCount, name, party, citizenshipNo, dob, img, email, 0);\r\n        }\r\n    }\r\n\r\n    // Delete Candidate\r\n    function delCandidates(uint256 id) public {\r\n        require(id <= candidatesCount && id > 0, \"Invalid candidate ID\");\r\n        while (id < candidatesCount) {\r\n            candidates[id] = candidates[id + 1];\r\n            id += 1;\r\n        }\r\n        delete candidates[candidatesCount];\r\n        candidatesCount--;\r\n    }\r\n\r\n    // Edit Candidate\r\n    function editCandidates(\r\n        uint256 id,\r\n        string memory name,\r\n        string memory party,\r\n        string memory citizenshipNo,\r\n        string memory dob,\r\n        string memory email\r\n    ) public {\r\n        require(id <= candidatesCount && id > 0, \"Invalid candidate ID\");\r\n        candidates[id].name = name;\r\n        candidates[id].party = party;\r\n        candidates[id].citizenshipNo = citizenshipNo;\r\n        candidates[id].dob = dob;\r\n        candidates[id].email = email;\r\n    }\r\n\r\n    // Register User with Keccak-256 Hash\r\n    function registerUser(string memory _dataToHash) public {\r\n        require(!voters[msg.sender].registered, \"User already registered\");\r\n        bytes32 userHash = keccak256(abi.encodePacked(_dataToHash));\r\n        voters[msg.sender] = Voter(string(abi.encodePacked(userHash)), true, \"\");\r\n    }\r\n\r\n    // Verify User Hash\r\n    function verifyUser(address _user, string memory _dataToHash) public view returns (bool) {\r\n        bytes32 userHash = keccak256(abi.encodePacked(_dataToHash));\r\n        return keccak256(abi.encodePacked(voters[_user].userHash)) == userHash;\r\n    }\r\n\r\n    // Vote with Keccak-256 Hash\r\n    function vote(uint256 _id) public {\r\n        require(voters[msg.sender].registered, \"User not registered\");\r\n        require(!votedornot[msg.sender], \"You have already voted\");\r\n        require(_id <= candidatesCount && _id > 0, \"Invalid candidate ID\");\r\n\r\n        // Generate vote hash (voter address + candidate ID)\r\n        bytes32 voteHash = keccak256(abi.encodePacked(msg.sender, _id));\r\n        voters[msg.sender].voteHash = string(abi.encodePacked(voteHash));\r\n        votedornot[msg.sender] = true;\r\n        candidates[_id].votecount += 1;\r\n    }\r\n\r\n    // Verify Vote Hash\r\n    function verifyVote(address _voter, uint256 _candidateId) public view returns (bool) {\r\n        bytes32 voteHash = keccak256(abi.encodePacked(_voter, _candidateId));\r\n        return keccak256(abi.encodePacked(voters[_voter].voteHash)) == voteHash;\r\n    }\r\n}",
  "sourcePath": "/home/sunil/Desktop/Projects/clz-project/Ethereum-Voting-App/contracts/Election.sol",
  "compiler": {
    "name": "solc",
    "version": "0.8.0+commit.c7dfd78e.Emscripten.clang"
  },
  "schemaVersion": "3.4.16",
  "updatedAt": "2025-07-25T05:42:38.079Z",
  "networkType": "ethereum",
  "devdoc": {
    "kind": "dev",
    "methods": {},
    "version": 1
  },
  "userdoc": {
    "kind": "user",
    "methods": {},
    "version": 1
  }
}